:020000040000FA
:0400000007EF00F016
:0A0008000882CBED04F0E0EF04F0F5
:100800000088C090A000EDEC04F0F8EC04F0035078
:10081000D8A40DEF04F00FEF04F07EEF04F082B0E7
:1008200014EF04F016EF04F03EEF04F002BE24EFE4
:1008300004F0025007E1050E015CD8B022EF04F08D
:1008400024EF04F03EEF04F00D0E076E2D0E066E41
:10085000D80EE82EFED7062EFCD7072EFAD782A098
:1008600034EF04F036EF04F02FEF04F0014A022ACF
:10087000B2EC04F001C089FF07EF04F082B243EF4D
:1008800004F045EF04F095EF04F002BE50EF04F0E1
:10089000025008E10104D8A050EF04F052EF04F038
:1008A00095EF04F00D0E076E2D0E066ED80EE82E95
:1008B000FED7062EFCD7072EFAD782A262EF04F0ED
:1008C00064EF04F05DEF04F00106D8A0020699EC95
:1008D00004F03AEF04F099EC04F00106D8A0020607
:1008E00001C089FF1F0E076E710E066E1E0EE82EE8
:1008F000FED7062EFCD7072EFAD700D00328D8A49F
:1009000084EF04F086EF04F095EF04F002BE93EF5D
:1009100004F0025006E10104D8B091EF04F093EF27
:1009200004F06BEF04F007EF04F007EF04F007EFBB
:1009300000F00450D8B49FEF04F0A1EF04F0ADEF45
:1009400004F00406010E0424F66EF76A080EF7227E
:100950000800F5CF8AFFB1EF04F0030E046EA2EF9A
:1009600004F01200030E0460B8EF04F0BAEF04F0D4
:10097000C6EF04F0042A010E0424F66EF76A080E8E
:10098000F7220800F5CF8AFFCAEF04F0000E046ECC
:10099000BBEF04F012000600031E8DB0D2EF04F08E
:1009A000D5EF04F0010ED6EF04F0000EFF0A056E3D
:1009B0008D500518FE0B05188D6EF09008921100F1
:1009C000046A036A026A016A08900892000EF86ECF
:1009D000080EF76E000103EF04F00F0EC1129480B1
:1009E0009482070E936E000E966E000E926E1200A9
:0A09F000F086F090F198F28E1200EC
:020000040020DA
:08000000FFFFFFFFFFFFFFFF00
:020000040030CA
:0E000000040E181EFF0181FF0FC00FE00F401D
:00000001FF
